:100000001DC02CC02BC02AC029C0E6C027C026C0F6
:1000100025C024C023C022C021C020C01FC00000B2
:100020000000370000000000380002020202020255
:1000300001020408102001030000040011241FBE67
:10004000CFE5D2E0DEBFCDBF20E0A0E6B0E001C04A
:100050001D92A936B207E1F709D15BC1D1CF3FB7F5
:10006000F8948091650090916600A0916700B0912E
:10007000680022B708B601FE05C02F3F19F00196AF
:10008000A11DB11D3FBFBA2FA92F982F8827BC01F2
:10009000CD01620F711D811D911D42E0660F771F1A
:1000A000881F991F4A95D1F70895CF92DF92EF925A
:1000B000FF92CF93DF936B017C01D1DFEB01CFDFA8
:1000C0006C1B7D0B683E7340A0F0C114D104E104A9
:1000D000F10439F4DF91CF91FF90EF90DF90CF9052
:1000E000089581E0C81AD108E108F108C851DC4F31
:1000F000E6CFC114D104E104F10409F7EBCF90E09D
:10010000FC01EA5CFF4F3491FC01E05DFF4F24915C
:10011000FC01E65DFF4FE491EE23B9F0332329F0B3
:100120003130A1F48AB58F778ABDF0E0EE0FFF1F62
:10013000EC5DFF4FA591B4918FB7611118C0F89491
:10014000EC9120952E232C938FBF0895323019F413
:100150008AB58F7DE9CF333021F480B78F7D80BFA2
:10016000E4CF343011F78CB58F7D8CBDDECFF894A1
:10017000EC912E2BE8CFCF93DF9390E0FC01E05D74
:10018000FF4F2491865D9F4FFC0184918823D1F01D
:1001900090E0880F991FFC01E25EFF4FA591B4919A
:1001A000FC01EC5DFF4FC591D49161110EC09FB76A
:1001B000F8948C91E22FE0958E238C932881E22392
:1001C000E8839FBFDF91CF9108958FB7F894EC91AA
:1001D000E22BEC938FBFF6CF1F920F920FB60F92C8
:1001E00011242F933F938F939F93AF93BF9380914D
:1001F000610090916200A0916300B0916400309121
:10020000600023E0230F2D3768F126E8230F0296C4
:10021000A11DB11D20936000809361009093620046
:10022000A0936300B0936400809165009091660094
:10023000A0916700B09168000196A11DB11D809347
:10024000650090936600A0936700B0936800BF912B
:10025000AF919F918F913F912F910F900FBE0F9073
:100260001F9018950196A11DB11DD4CF83E08ABDC2
:1002700083BF789489B7826089BF80E48CBD8FEF9B
:100280008DBD87EC80BF87E886B961E084E073DFCD
:1002900060E083E070DF61E082E06DDF61E081E0DB
:1002A0006ADF60E083E02BDF60E081E028DF60E070
:1002B00084E025DFC0E5D0E061E081E020DF61E09F
:1002C00070E080E090E0F1DE60E081E018DF62E065
:1002D00070E080E090E0E9DE219771F760E084E073
:1002E0004ADF61E084E00BDF30E020E046B381E0EC
:1002F00090E0542F587043FD02C090E080E08217D8
:100300009307A1F3511103C0C2989C01EFCFC29A89
:06031000FCCFF894FFCFC2
:00000001FF
